:1000000071C000008EC000008CC000008AC00000DB
:1000100088C0000086C0000084C0000082C00000CC
:1000200080C000007EC000007CC000007AC00000DC
:1000300078C0000076C0000074C0000072C00000EC
:1000400070C000006EC000006CC000006AC00000FC
:1000500068C0000066C0000064C0000062C000000C
:1000600060C000007EC000005CC000005AC00000FC
:1000700058C0000056C0000054C0000052C000002C
:1000800050C000004EC000004CC000004AC000003C
:1000900048C0000046C0000044C0000042C000004C
:1000A00040C000003EC000003CC000003AC000005C
:1000B00038C0000036C0000034C0000032C000006C
:1000C00030C000002EC000002CC000002AC000007C
:1000D00028C0000026C0000024C0000022C000008C
:1000E00020C0000011241FBECFEFD1E2DEBFCDBF84
:1000F00000E00CBF12E0A0E0B2E0ECECF1E000E0C8
:100100000BBF02C007900D92A432B107D9F722E0CD
:10011000A4E2B2E001C01D92A532B207E1F74ED0D1
:1001200053C06ECF1092C50087E68093C40088E963
:100130008093C10086E08093C20008959091C00032
:1001400095FFFCCF8093C6000895CF93DF93EC0119
:1001500002C02196F3DF88818111FBCFDF91CF911F
:1001600008951F920F920FB60F9211240BB60F92A3
:100170002F933F934F935F936F937F938F939F93AF
:10018000AF93BF93EF93FF938091C60080932402B7
:1001900080912402D3DFFF91EF91BF91AF919F91A6
:1001A0008F917F916F915F914F913F912F910F9020
:1001B0000BBE0F900FBE0F901F901895B3DF789471
:0C01C00080E092E0C2DFFFCFF894FFCF98
:1001CC005541525420526563657074696F6E2049B5
:1001DC006E74657272757074204578616D706C65A3
:0401EC000D0A0000F8
:00000001FF
