S01700004763634170706C69636174696F6E392E7372656353
S113000071C0000086C0000084C0000082C00000EF
S113001080C000007EC000007CC000007AC00000E8
S113002078C0000076C0000074C0000072C00000F8
S113003070C000006EC000006CC000006AC0000008
S113004068C0000066C0000064C0000062C0000018
S113005060C000005EC000005CC000005AC0000028
S113006058C0000056C0000054C0000052C0000038
S113007050C000004EC000004CC000004AC0000048
S113008048C0000046C0000044C0000042C0000058
S113009040C000003EC000003CC000003AC0000068
S11300A038C0000036C0000034C0000032C0000078
S11300B030C000002EC000002CC000002AC0000088
S11300C028C0000026C0000024C0000022C0000098
S11300D020C000001EC000001CC000001AC00000A8
S11300E018C0000011241FBECFEFD1E2DEBFCDBF88
S11300F000E00CBF12E0A0E0B2E0E6E7F1E000E0CF
S11301000BBF02C007900D92AA31B107D9F721D0D5
S113011030C076CF1092C50087E68093C40088E093
S11301208093C10086E08093C20008959091C0003E
S113013095FFFCCF8093C6000895CF93DF93EC0125
S113014002C02196F3DF88818111FBCFDF91CF912B
S11301500895E0DF80E092E0F0DF81E4E7DF2FEF55
S113016083ED90E3215080409040E1F700C000000F
S1090170F4CFF894FFCF68
S1130176456D6265646465642053797374656D7353
S10D018620436F757273650D0A00C3
S9030000FC
